:020000040800F2
:1000000000070020650100085B0B0008590B000881
:1000100000000000000000000000000000000000E0
:100020000000000000000000000000005F0B00085E
:1000300000000000000000005D0B0008610B0008DC
:100040007701000800000000770100087701000830
:1000500077010008770100087701000877010008A0
:100060000000000077010008770100087701000810
:100070007701000877010008770100080000000000
:100080007701000877010008770100087701000870
:100090007701000877010008770100087701000860
:1000A0007701000877010008770100087701000850
:1000B00077010008770100080000000077010008C0
:1000C00000F002F800F03EF80CA030C80838241800
:1000D0002D18671EA246AB4654465D46AC4201D180
:1000E00000F030F87E460F3EB6460FCC0126334274
:1000F00000D0FB1A3343A246AB4618475C120000FF
:100100007C120000103A02D378C878C1FAD852079E
:1001100001D330C830C101D504680C6070470000BD
:100120000023002400250026103A01D378C1FBD813
:10013000520700D330C100D50B6070471FB51FBDFB
:1001400010B510BD00F02DF81146FFF7F7FF00F0D5
:1001500051FF00F045F803B4FFF7F2FF03BC00F0D5
:100160004BF800000748804707480047FEE7FEE7D6
:10017000FEE7FEE7FEE7FEE704480549054A064BB1
:1001800070470000690B0008C10000080001002052
:100190000007002000030020000300207047704784
:1001A0007047754600F024F8AE4605006946534690
:1001B000C008C000854618B020B5FFF7DDFF60BC61
:1001C000B64600260027C0C5C0C5C0C5C0C5C0C54D
:1001D000C0C5C0C5C0C5403D490849008D467047EF
:1001E00010B50446C046C0462046FFF7B4FF10BD18
:1001F000004870471000002001491820ABBEFEE700
:100200002600020070470000B0B5044600F0ECF88C
:100210000546601C02D091480078041900F0E4F80B
:10022000401BA042FAD3B0BDF0B58AB003900F686E
:10023000002F00D1C3E06348039A824201D0052019
:1002400000E00320009000231A461C4608910BE0B2
:100250003A433260079A641C0F683846E0409B1CA2
:10026000121D002800D1AAE001260596A6403740BD
:10027000F1D00792032002469A400293D343496883
:100280000D4605406A1E012A0693049113D8019772
:10029000039FB8681840089AD268029B9A400243AC
:1002A000BA60C806C00FA0407A68B2433E46019FBC
:1002B0000243726006E0032D039E029B02D10546B5
:1002C000079A1EE0F0680699084008998A689A40E3
:1002D0000243F260022D079A13D11C2010400F2117
:1002E0008140E2089200B218156A8D43089E316978
:1002F000814029431162079A7068039E0325049088
:1003000005409D40306806990840284330600498B5
:100310008003800F08999ED05B490868059D28439B
:1003200008600868284009900C2010400F22824085
:10033000032125468D430999244EA9599143AD19AE
:100340000922D206039E96420CD0214A964206D03C
:10035000204A9642009A1C4E06D1022204E01A4E10
:10036000059A01E00022184E82400A432A60B568CF
:10037000089801464068C2020FD53D43B560F56854
:1003800082020FD4BD43F560756882030FD4BD436C
:1003900075603268C00310D55AE7BD43B560F56893
:1003A0008202EFD53D43F56075688203EFD53D438A
:1003B00075603268C00300D54AE7BA4349E70AB01E
:1003C000F0BDC046000C0048000401400800014098
:1003D0000004004800080048002A02D0182281507A
:1003E0007047282281507047054800687047C04612
:1003F0001A48007802490A68101808607047C04619
:10040000F800002010B57A48016810220A43026003
:100410000024204600F004F800F022F8204610BD29
:1004200070B504467D20C0000C4E317800F07CFE93
:1004300001467748006800F077FE00F013FB0125C5
:10044000032C08D8002806D10025E84321462A4677
:1004500000F01CF87460284670BDC0460000002003
:1004600082B009480168012211430160016811400E
:1004700001910199110742680A43426040680840AF
:100480000090009802B0704718100240002805D470
:100490000322034693430A4A9A1803E00C220240BF
:1004A000064BD2188007C00E8901C9B28140FF23D4
:1004B00083401068984308431060704714ED00E0D3
:1004C00000E400E0F0B581B0002861D00446484A5D
:1004D0001368012003408B4208D213680126B343FE
:1004E0000B431360126832408A424ED1009121685A
:1004F0008A07544B11D54A0707D507221202514BE0
:100500001B6813434F4A13604E4B1A68F0239A43FB
:10051000A36813434B4A13604A4BC9073CD1344983
:10052000086801263040009A904205D90868B04317
:1005300008600868C00728D12078400706D5072042
:10054000000219688143E0680843186019680C22AA
:100550000A403D48082A0CD18902090F3B4A545CE5
:10056000996A0F220A403A49895C00F0DDFD354B5B
:10057000604319680906090F1F4A515CC8402449A5
:10058000086000263046FFF74BFF304601B0F0BD53
:100590000126304601B0F0BD61681A1F022906D05D
:1005A000012909D1126892030646EED508E01268C7
:1005B00092010646E9D503E0126892070646E4D5A3
:1005C00018680326B04308431860FFF70DFF07467D
:1005D000084D1C4B18680C21014060688000814266
:1005E0009DD0FFF701FFC01BA842F2D9CDE7C0465E
:1005F00000200240881300001E1300080448006811
:10060000104909684905490F024A515CC8407047C2
:10061000080000202E13000810B50A490A680C23B0
:1006200013400948082B0BD19202120F074B9C5C18
:10063000896A0F220A400649895C00F075FD604313
:1006400010BDC0460410024000127A0036130008A4
:1006500046130008F0B587B004460120002C00D1F5
:10066000F5E104902078C007FB4E059419D071681D
:100670000C20014004290DD071680140082900D0E8
:10068000C0E00320C00371680140012000048142E2
:1006900000D0B7E03068800303D56068002800D13F
:1006A00018E1207880071FD570680007800F0CD0F4
:1006B00070680C21014008297AD10320C0037168B9
:1006C00001400120C003814272D130688007059C3F
:1006D00003D5E068012800D0FCE03068F8218843A9
:1006E0002169C90001433160059C2078000724D4AA
:1006F0002078400736D42078C00600D4C5E005989D
:100700004069411D00D1B4E0012800D007E1706BC1
:10071000042101437163706B012101437163FFF791
:1007200063FE0546706B800700D5A6E0FFF75CFE10
:10073000411B03200229F5D989E1706AE16900298A
:1007400074D0012108437062FFF74EFE0546706ABF
:100750008007CDD4FFF748FE401B0228F7D90320BD
:1007600007B0F0BD012003900107F0690840029036
:1007700006D1F0690843F061F069084006900698D8
:100780000191B64F3868C00528D403980402386830
:1007900020433860FFF728FE0546386820421DD107
:1007A000FFF722FE401B6428F7D9032007B0F0BDF5
:1007B0003068059CE16800294AD001210843306077
:1007C000FFF712FE05463068800786D4FFF70CFE5F
:1007D000401B0228F7D9032007B0F0BD05988068B8
:1007E0009F4F002800D1AFE0052800D1C1E00128CB
:1007F00000D1C2E0306A039988433062306A042134
:100800008843BDE0616801204704002900D1D0E0A1
:10081000052900D1E4E0012900D1E5E001043268B6
:100820008A433260810430688843E0E001218843D4
:100830007062FFF7D9FD0546706A800700D457E75C
:10084000FFF7D2FD401B0228F6D9032007B0F0BD08
:10085000012188433060FFF7C7FD054630688007F7
:1008600000D441E7FFF7C0FD411B03200229F5D961
:10087000EDE0706B042188437063706BF82188434E
:1008800005998969C900014371630598046A002CC0
:100890001DD070680C21014008291ED1012C19D0EF
:1008A0000320C20370680240F16A059C636A9A42A1
:1008B00010D10F221140E36A9942049B00D0C8E096
:1008C00091040840A16A8842184600D0BFE0002089
:1008D00007B0F0BD049807B0F0BD012002063168F2
:1008E0000492914331604706FFF77EFD0546022CD6
:1008F0000BD1049C3068384200D188E0FFF774FDCA
:10090000411B03200229F5D9A1E030683842DED02E
:10091000FFF76AFD411B03200229F6D997E0706BAF
:10092000042101437163706B012188437063FFF7F9
:100930005BFD0546706B8007A7D5FFF755FD411B92
:1009400003200229F6D982E0306A03998843306295
:10095000306A042188433062FFF746FD0546306A5D
:1009600080071CD5FFF740FD411B0320B942F6D993
:100970006DE0306A042101433162306A0399084313
:100980003062FFF731FD0546306A800707D4FFF774
:100990002BFD401BB842F7D9032007B0F0BD0298E9
:1009A0000028059C00D0A6E6F06901998843F06113
:1009B000A1E6010432688A433260800431688143D1
:1009C0003160FFF711FD0546059C3068384200D1C3
:1009D00067E6FFF709FD411B03206429F5D936E0DE
:1009E000810432680A433260010430680843306091
:1009F000FFF7FAFC05463068384200D051E6FFF7B1
:100A0000F3FC401B6428F6D9032007B0F0BDF06A60
:100A10000F218843059AD16A0143F1627B20C0030C
:100A200071688143906A0843516A0143716030687C
:100A300020433060FFF7D8FC04463068384200D0CD
:100A400045E7FFF7D1FC011B03200229F5D907B0C8
:100A5000F0BD184607B0F0BD001002400070004025
:100A600088130000401E010E01D001207047074985
:100A7000074A5060074803680B400321890759184B
:100A8000016000209060072111607047FFFFFF00A8
:100A900010E000E020ED00E0B0B500282ED00446C4
:100AA000C06F002805D1782000212154204600F095
:100AB00027F82420E067206801680125A943016028
:100AC000204600F01DF9012816D0606A002802D0E7
:100AD000204600F04AF80120C102226853688B4387
:100AE0005360916808239943916011680143116034
:100AF000204600F0A3F805462846B0BD0120B0BD51
:100B000080B586B00068C949884201D006B080BD72
:100B10001048816801220592520411438160816866
:100B20001140009100990168114301600068104074
:100B300000900320049000200390022002900C20DB
:100B400001900920C006009901A9FFF76DFB06B0CE
:100B500080BDC04614100240FEE7FEE770477047B4
:100B600080B5FFF745FC80BD7047B0B5416ACA0744
:100B70000CD18A0714D44A071CD40A0724D4CA0605
:100B80002CD48A0634D44A063CD44CE001225204C8
:100B900003685C689443826A22435A608A07EAD5F4
:100BA0000122120403685C689443C26A22435A60BB
:100BB0004A07E2D50122920403685C689443026B01
:100BC00022435A600A07DAD50122D20303685C681F
:100BD0009443426B22435A60CA06D2D501221203C3
:100BE00003689C689443826B22439A608A06CAD544
:100BF0000122520303689C689443C26B22439A60AB
:100C00004A0610D501221305026854689C43056CFE
:100C10002C4354609D4206D103235B0554689C43DA
:100C2000436C23435360090607D50121C9040268B8
:100C300053688B43806C18435060B0BDF0B583B0EF
:100C40000446064678360027F760FFF7CDFB0346DB
:100C50002068016809071FD52848009001200290EC
:100C60004105002220461D4600F0F2F8002811D070
:100C7000EFF31080029981F3108821680A688023BD
:100C80009A430A6080F310882020E06703203770C1
:100C900003B0F0BD20682B460068400725D51748F3
:100CA00000900125A9050022204600F0D1F8002877
:100CB0001BD0EFF3108085F31088092149012268C9
:100CC00013688B43136080F31088EFF3108085F373
:100CD000108821688A68AA438A6080F310882020DF
:100CE000B0600320377003B0F0BD2020E067B06033
:100CF000276667663846377003B0F0BDFFFFFF0117
:100D0000B0B5044600680168444A0A40A1682369F6
:100D10000B4365691D431543E1690D4305600322DB
:100D2000120343689343E2681A434260A269236A4C
:100D300013430B221202856895431D4385600022F0
:100D4000374B984206DC394B984211D0384B9842C9
:100D50000ED00CE0334B98420AD0334A904206D171
:100D6000344800688007000F33A2125800E01022B8
:100D70000125EB033448994210D1082A49D8C046CE
:100D80007A4412795200974404442044194444445C
:100D90001F00FFF733FC002817D113E0082A38D8CA
:100DA0007A4412795200974404342734203434347E
:100DB0002600FFF723FC00281ED11AE0FFF72CFCC9
:100DC000002802D1002524E01846400061684A0846
:100DD000101800F0A9F90246103A1C498A4218D2AC
:100DE00001400007400F084310E0FFF715FC002802
:100DF00002D100250DE0184661684A08101800F07D
:100E000093F901461039114A914202D22168C86013
:100E100000250020A066E0662846B0BDF369FFEF1C
:100E2000FF4B0040004C00400038014000440040AF
:100E300000480040301002400000000004000000A4
:100E4000080000000200000000127A00F0FF00001D
:100E5000F0B587B015460F460668F1693940C91BE1
:100E60004A424A410021AA4225D106930C9C002CFB
:100E700024D00B46611C26D1F1693940C91B4A4276
:100E80004A41AA4214D1F1693940C91B4A424A4138
:100E9000AA420DD1F1693940C91B4A424A41AA42CE
:100EA00006D1F1693940C91B4A424A41AA42E3D0FE
:100EB000184607B0F0BD084607B0F0BDFFF794FA3A
:100EC000032007B0F0BD0293014678310391012160
:100ED0000191C9020491059006E0C9693940CA1B15
:100EE00051425141A9424BD1FFF77EFA0699411A6E
:100EF0000323A142DCD8059801680A685207ECD5A3
:100F0000CA6912073FD4CA692646049C2242344665
:100F1000E3D01F4604980862EFF31082012181F3A9
:100F2000108809235B010598046825689D432560A6
:100F300082F31088EFF3108281F31088059803681C
:100F40009C688C439C60059882F31088026E012A8D
:100F50000BD1EFF3108281F3108801680B68102425
:100F6000A3430B60059882F310882021039B9960AE
:100F70000022026682661A70D960384607B0F0BD5A
:100F8000029807B0F0BD08250D62EFF310810198BB
:100F900080F3108809225201059B1B681C6894434A
:100FA0001C6081F31088EFF3108180F31088059A9C
:100FB0001268936883439360059B81F31088196ED0
:100FC00001290CD1EFF31081012282F310881A68F5
:100FD00013681024A3431360059B81F3108820211C
:100FE000039A91600021196699661170D56007B067
:100FF000F0BD000092B0FFF705FA00240A940994AE
:101000000D940C940B9408940794119402250E955A
:10101000069510200A900120099001051091C00347
:101020000F9006A8FFF716FB002803D0EFF31080FF
:1010300072B6FEE70594049403950720029002A877
:1010400001263146FFF73EFA002803D0EFF3108067
:1010500072B6FEE70A940994F1042F4802680A4325
:10106000026002680A4002920299B10502680A43CE
:10107000026002680A4002920299710402680A43FF
:10108000026000680840029002980920C5062021ED
:10109000019128462246FFF79FF908942120000479
:1010A0000790700306901D4806AF3946FFF7BCF85D
:1010B0000994089407960198069028463946FFF748
:1010C000B3F817480C214B225202164B03604260C2
:1010D0008460C460046141618461C46104624462EB
:1010E000FFF7DAFC002803D0EFF3108072B6FEE7BA
:1010F0007D2084002026012228463146FFF76CF926
:101100002046FFF781F8002228463146FFF764F9B0
:101110002046FFF779F8EDE7141002400008004878
:10112000700000200044004043088B421AD3002284
:1011300003098B4279D3030A8B425ED3030B8B42A4
:1011400042D3030C8B4227D30902FF2212BA030CAD
:101150008B4202D31212090203D0030B8B4233D30A
:101160001AE0D3E0411A8041401C704703460B430C
:1011700071D443088B42F5D3002203098B4254D328
:10118000030A8B4239D3030B8B421DD3030C8B42D2
:1011900002D394466EE0090AC30B8B4201D3CB0302
:1011A000C01A5241830B8B4201D38B03C01A5241A8
:1011B000430B8B4201D34B03C01A5241030B8B42AA
:1011C00001D30B03C01A5241C30A8B4201D3CB0295
:1011D000C01A5241830A8B4201D38B02C01A52417A
:1011E000430A8B4201D34B02C01A5241030A8B427D
:1011F00001D30B02C01A5241CDD2C3098B4201D395
:10120000CB01C01A524183098B4201D38B01C01A12
:10121000524143098B4201D34B01C01A5241030989
:101220008B4201D30B01C01A5241C3088B4201D338
:10123000CB00C01A524183088B4201D38B00C01AE5
:10124000524143088B4201D34B00C01A5241411A0C
:10125000524110007047CA0F00D04942031000D31A
:101260004042534000229C4603098B422DD3030A7F
:101270008B4212D38901FC2212BA030A8B420CD38F
:10128000890192118B4208D3890192118B4204D3B8
:10129000890137D0921100E08909C3098B4201D33B
:1012A000CB01C01A524183098B4201D38B01C01A72
:1012B000524143098B4201D34B01C01A52410309E9
:1012C0008B4201D30B01C01A5241C3088B4201D398
:1012D000CB00C01A524183088B4201D38B00C01A45
:1012E0005241D9D243088B4201D34B00C01A52411C
:1012F000411A00D201465241104663465B1000D3AA
:101300004042704763465B1000D3404201B5002164
:10131000004201D0C9430846C046C04602BD000095
:101320000000000000000102030406070809000095
:1013300000000102030402030405060708090A0B62
:101340000C0D0E0F10100102030405060708090A10
:101350000B0C0D0E0F100000781300080000002089
:10136000100000000401000888130008100000208D
:10137000F006000020010008010000000400000049
:0813800000127A0000000000D9
:04000005080000C12E
:00000001FF
