:020000040800F2
:10000000B81B002075010008131A0008111A000817
:1000100000000000000000000000000000000000E0
:10002000000000000000000000000000171A000897
:100030000000000000000000151A0008191A00084E
:100040008701000800000000870100088701000800
:100050008701000887010008870100088701000860
:1000600000000000870100088701000887010008E0
:10007000C90400088701000887010008000000008B
:100080008701000887010008870100088701000830
:1000900087010008251A0008870100088701000869
:1000A0008701000887010008870100088701000810
:1000B0008701000887010008000000008701000890
:1000C00000F002F800F046F80CA030C808382418F8
:1000D0002D18671EA246AB4654465D46AC4201D180
:1000E00000F038F87E460F3EB6460FCC012633426C
:1000F00000D0FB1A3343A246AB461847C02200008B
:10010000E0220000103A02D378C878C1FAD852072A
:1001100001D330C830C101D504680C6070470000BD
:100120000023002400250026103A01D378C1FBD813
:10013000520700D330C100D50B60704710B5752948
:1001400002D100F07DF810BD002010BD1FB51FBD0D
:1001500010B510BD00F085F91146FFF7F7FF01F06B
:100160000BFF00F09DF903B4FFF7F2FF03BC00F0B2
:10017000A3F900000748804707480047FEE7FEE76D
:10018000FEE7FEE7FEE7FEE704480549054A064BA1
:1001900070470000211A0008C1000008B8150020AF
:1001A000B81B0020B8170020B81700200FB41CB5EA
:1001B000074B06AA7B4469460090059800F025F994
:1001C0000020694600F034F91CBC08BC04B0184794
:1001D00079020000F8B50E46044600202062204651
:1001E000E1688847002829D0252802D06268A168E4
:1001F00020E0E16820460027884705001ED02846F9
:100200004138192802D80127FF02203532462046FE
:1002100027602946FFF792FF002808D0012804D064
:10022000F61DF608F6000836D9E7361DD7E76268EE
:100230002846A1689047206A401CCFE7206AF8BD95
:10024000F7B5002575291068009914A611D0C0468D
:10025000C046002802DA404211A608E00099096869
:100260008A0701D50FA602E0490704D50EA601258D
:1002700001E0C046C046009F0024243704E000F09F
:10028000DCF830313955641C0028F8D12B46324651
:100290002146009800F05BF8FEBD00000000000061
:1002A0002D0000002B0000002000000030B5441C91
:1002B00003E00178401C00290DD08107F9D10B4BD8
:1002C000DD0104C8D11A91432940FAD0001B0A0667
:1002D00003D0C01E30BD001B30BD0A0401D0801EFB
:1002E00030BD0902FCD0401E30BD000001010101FB
:1002F000421E5378521C002BFBD10B78491C137003
:10030000521C002BF9D1704701E004C0091F0429D9
:10031000FBD28B0701D50280801CC90700D0027078
:10032000704700290BD0C30702D00270401C491E41
:10033000022904D3830702D50280801C891EE3E7CB
:100340000022EEE70022DFE7704770477047FFB5F5
:1003500004460D4681B0243000902168880604D5FB
:100360001022E0699143216000E00120A84201DDF4
:10037000471B00E000270498A1697A191018081A91
:10038000A0612078C00602D42046C046C0460026A0
:1003900008E003986268A168805D9047206A401C6D
:1003A000761C206204988642F3DB2078C0060AD5CA
:1003B0002046C046C04606E06268A16830209047EB
:1003C000206A401C206238467F1E0028F4DC07E0CB
:1003D00000986268A168405D9047206A401C2062D6
:1003E00028466D1E0028F3DC2046C046C046207813
:1003F000000602D5022005B0F0BD0120FBE7000099
:1004000001694A1C02610878704700B58FB00291FB
:100410000021059105490193794403911146049007
:100420006846FFF7D7FE0FB000BD0000E5FFFFFFF5
:100430000A681070521C0A60704701468008081A4A
:1004400002091018020A1018020C1018C0088200C5
:1004500012185200891A01E0401C0A390A29FBD2FD
:100460007047754600F024F8AE46050069465346CD
:10047000C008C000854618B020B5FFF785FE60BCF7
:10048000B64600260027C0C5C0C5C0C5C0C5C0C58A
:10049000C0C5C0C5C0C5403D490849008D4670472C
:1004A00010B50446C046C0462046FFF75CFE10BDAE
:1004B000004870471000002001491820ABBEFEE73D
:1004C000260002007047000080B5024800F020F9C5
:1004D00080BDC0468400002070B582B0054600246F
:1004E00001940068816803220A40012A05D101684D
:1004F000C9070ED1C16809040BD48168214A114291
:100500000AD0A86B10210143A963E86B01242043A2
:10051000E863204602B070BD816801220A43826010
:1005200062480068624901F031FE0190019800289C
:1005300017D00198401E01900198002811D0019811
:10054000401E0190019800280BD00198401E019098
:100550000198002805D00198401E019001980028BC
:10056000E7D100F0C3FB064628680068C007D0D179
:1005700000F0BCFB811B28680329F6D30168C9077A
:10058000F3D1BEE717000080F0B583B000270297D3
:100590003422825C012A02D1022003B0F0BD05465C
:1005A00034350668B268520717D4009701950B6876
:1005B0004A68012427469F403A4DAA4213D1B06AA7
:1005C000B843B0621846A0431028009F3846019DEA
:1005D00054D1102B19D0384818E0816B20220A43DF
:1005E000826301204AE0B26A3A43B262C06A421EA4
:1005F000072A46D21846A0431028009F3846019D7E
:100600003CD1102B0AD0A00509E02A4826490A68E7
:1006100002400A6038462F7003B0F0BDE005224961
:100620000A6802430A60102B384627D11F48006829
:100630001F4901F0ABFD0A214143029102980028B5
:1006400038461BD00298401E02900298002811D014
:100650000298401E0290029800280BD00298401E7B
:1006600002900298002805D00298401E029002983D
:100670000028E7D138462F7003B0F0BD2F7003B0CB
:10068000F0BD22079042B5D0726907200240896808
:100690009142AFD072698243726101407069084330
:1006A0007061A7E701100000082701400800002042
:1006B00040420F00FFFF7FFFFFFFBFFFB0B50E4CB2
:1006C0006168491C616000F020F820800C3482B21F
:1006D0000AA12046FFF76AFD0948FFF7E7FD054636
:1006E0002046FFF7E3FD40190649884203D8044835
:1006F0002146FFF7FDFDB0BD7000002025750A0002
:100700001C0200209113000070470068006C7047C5
:10071000F0B581B004460068056804212A460A4005
:1007200053425341466831404A424A411A430123E9
:10073000012A09D108223240514251412A071A4662
:1007400000D50A46002A36D11F4621463831A26B11
:10075000D20604D4012252020B6813430B60C26814
:100760001205920F20D108232B405A425A41A37EF2
:10077000002B3B4600D11346002B15D1826852074F
:1007800008D442680C239A434260FF220232086870
:10079000904306E0A06B20210143A16321463C3138
:1007A000E06B012202430A602046FFF787FF2068C2
:1007B0000C2101603B46802732463A40514251416C
:1007C0002A061A4600D50A46002A0DD10120000447
:1007D000A16B0143A163204600951D4600F0D0F8AF
:1007E0002B46009D2068076010273E4071427141F2
:1007F000EA0603D4002B04D001B0F0BD0B46002B59
:10080000FAD1A16A012902D0C168C90708D0E16BF9
:1008100002220A43E26307602046FFF775FF206863
:10082000076001B0F0BD0000F0B581B001250028DF
:1008300062D0044606462436806B002803D0A06BA5
:10084000C00609D554E000203074E063204600F073
:1008500099F8A06BC0064BD420688168490747D43B
:1008600081214900A26B8A43911CA1638268032104
:100870000A40012A05D10268D2070ED1C2681204CB
:100880000BD4C26818239A43A3681343C360890733
:1008900002698A43616811430161C168364A0A40AE
:1008A000C260A16A491E4A1E91410903227E920339
:1008B000637EDB031343A27E55031D43E368276970
:1008C0002B430B43B91E4D424D41AD001D433178C2
:1008D00049002943E37E012B14D1002A0FD0A26BDB
:1008E00020231343A363E26B01231343E36309E073
:1008F000A06B10210143A163284601B0F0BD012285
:1009000012041143E269FF23C2339A4202D0236AE0
:1009100019431143C2680A43C260E26A531E072B9F
:1009200024D243690725AB4343612A4043691343FB
:100930004361C068114A02408A420AD10025E5633A
:10094000A06B0121014302208143A163284601B02D
:10095000F0BDA06B1021014302208143A163E06B35
:1009600001252843E063284601B0F0BD01231B07A1
:100970009A42D6D0DDE7C0461902FEFFE7FF3F836B
:100980007047000070B586B0002405940494006898
:100990001449884201D006B070BD01256802124991
:1009A0004A6802434A604A68024000920098E8049C
:1009B0000A6802430A600968014000910394032019
:1009C000029001950098C44801A900F0AFF80C26E8
:1009D00030462946224600F0E7F9304600F0D8F9C3
:1009E00006B070BD002401401410024070B50446EA
:1009F00000688168022049070FD43421615C012915
:100A00000BD02546343501262E70607E012805D096
:100A10002046FFF761FD002800D070BDA06B0D4996
:100A2000014030020818A0630020E06321681C2305
:100A30000B6028704A686469082C04D104239A4327
:100A40004A604B6818221A434A608A680423134399
:100A50008B6070BDFEF0FFFFF0B581B0044634201E
:100A6000205C012802D1022001B0F0BD26463436B8
:100A70000127377020688168490715D441681C2216
:100A800091434160826803210A40012A05D102682E
:100A9000D20724D1C268120421D4FF200230A16BF6
:100AA0008143383400203BE08168490706D58168DE
:100AB000890703D4816810220A43826000F016F986
:100AC0000546206881684907D8D500F00FF9411B19
:100AD00020680329F6D381684907F3D519E08268B5
:100AE00005231340012B14D1826802231343836032
:100AF000016000F0FBF8054620688068C007CCD094
:100B000000F0F4F8411B20680329F6D38168C90777
:100B1000F3D0A06B10210143A163E16B3C34384654
:100B2000002232703943216001B0F0BDF0B58AB0C7
:100B300003900F68002F00D1C3E06348039A8242FC
:100B400001D0052000E00320009000231A461C4637
:100B500008910BE03A433260079A641C0F683846EC
:100B6000E0409B1C121D002800D1AAE0012605963A
:100B7000A6403740F1D00792032002469A400293E4
:100B8000D34349680D4605406A1E012A0693049125
:100B900013D80197039FB8681840089AD268029B3F
:100BA0009A400243BA60C806C00FA0407A68B243B8
:100BB0003E46019F0243726006E0032D039E029BA6
:100BC00002D10546079A1EE0F06806990840089988
:100BD0008A689A400243F260022D079A13D11C20C2
:100BE00010400F218140E2089200B218156A8D432F
:100BF000089E3169814029431162079A7068039EFB
:100C00000325049005409D4030680699084028431C
:100C1000306004988003800F08999ED05B49086873
:100C2000059D284308600868284009900C20104062
:100C30000F228240032125468D430999244EA9594C
:100C40009143AD190922D206039E96420CD0214A47
:100C5000964206D0204A9642009A1C4E06D10222A5
:100C600004E01A4E059A01E00022184E82400A4321
:100C70002A60B568089801464068C2020FD53D4316
:100C8000B560F56882020FD4BD43F56075688203D4
:100C90000FD4BD4375603268C00310D55AE7BD4319
:100CA000B560F5688202EFD53D43F5607568820353
:100CB000EFD53D4375603268C00300D54AE7BA43BB
:100CC00049E70AB0F0BDC046000C004800040140EE
:100CD000080001400004004800080048002A02D033
:100CE00018228150704728228150704705480068BB
:100CF0007047C0461A48007802490A681018086010
:100D00007047C046B015002080B5C7480168102262
:100D10000A430260032000F005F800F023F80020E9
:100D200080BDC04670B504467D20C0000C4E3178B1
:100D300001F02CFA0146C448006801F027FA00F0DF
:100D4000ADFB0125032C08D8002806D10025E84377
:100D500021462A4600F028F87460284670BDC04637
:100D60000000002082B0094801680122114301609F
:100D70000168114001910199110742680A434260DC
:100D8000406808400090009802B070471810024078
:100D9000002805D41F21084001218140014801603D
:100DA0007047C04600E100E0002805D40322034656
:100DB00093430A4A9A1803E00C220240064BD218C9
:100DC0008007C00E8901C9B28140FF2383401068AB
:100DD000984308431060704714ED00E000E400E021
:100DE000F0B585B004468078C007414B4FD0012054
:100DF000039001071A1F10680840029006D110687E
:100E00000843106010680840049004980092019113
:100E1000384E3068C00513D4039807023068384351
:100E20003060FFF763FF05463068384208D1FFF7AE
:100E30005DFF401B6428F7D90325284605B0F0BDA7
:100E4000032528022A4B1968014012D0626802402B
:100E500091420ED00398000419681A6802431A6080
:100E60001A6882431A600846234A10401860C8076F
:100E700030D1186820490840616801431960029820
:100E8000002804D1009A10680199884310602068F6
:100E9000C10705D181060BD400258003CDD510E014
:100EA000196903229143A2680A431A618106F3D5A6
:100EB000196910229143E2680A431A6100258003F0
:100EC000BBD51869802188432169014319612846EF
:100ED00005B0F0BDFFF70AFF0646544F044B1868F3
:100EE0008007C6D4FFF702FF801BB842F6D9A4E7FB
:100EF0002010024000700040FFFCFFFFF0B581B001
:100F0000002861D00446484A1368012003408B4200
:100F100008D213680126B3430B43136012683240B2
:100F20008A424ED1009121688A07544B11D54A0755
:100F300007D507221202514B1B6813434F4A136017
:100F40004E4B1A68F0239A43A36813434B4A13602D
:100F50004A4BC9073CD13449086801263040009A01
:100F6000904205D90868B04308600868C00728D1D6
:100F70002078400706D50720000219688143E06801
:100F80000843186019680C220A403D48082A0CD111
:100F90008902090F3B4A545C996A0F220A403A4978
:100FA000895C01F0F3F8354B604319680906090FB5
:100FB0001F4A515CC840244908600320FFF7B2FE75
:100FC0000026304601B0F0BD0126304601B0F0BD2C
:100FD00061681A1F022906D0012909D112689203FB
:100FE0000646EED508E0126892010646E9D503E010
:100FF000126892070646E4D518680326B0430843F2
:101000001860FFF773FE0746084D1C4B18680C214B
:1010100001406068800081429DD0FFF767FEC01BE1
:10102000A842F2D9CDE7C046002002408813000054
:101030008223000804480068104909684905490FDF
:10104000024A515CC8407047080000209223000803
:1010500010B50A490A680C2313400948082B0BD124
:101060009202120F074B9C5C896A0F220A400649C4
:10107000895C01F08BF8604310BDC046041002404B
:1010800000127A009A230008AA230008F0B587B05E
:1010900004460120002C00D1F5E104902078C0071F
:1010A000FB4E059419D071680C20014004290DD025
:1010B00071680140082900D0C0E00320C0037168B6
:1010C000014001200004814200D0B7E03068800375
:1010D00003D56068002800D118E1207880071FD56B
:1010E00070680007800F0CD070680C21014008293F
:1010F0007AD10320C003716801400120C0038142FE
:1011000072D130688007059C03D5E068012800D0C3
:10111000FCE03068F82188432169C900014331604F
:10112000059C2078000724D42078400736D4207806
:10113000C00600D4C5E005984069411D00D1B4E067
:10114000012800D007E1706B042101437163706BCB
:10115000012101437163FFF7C9FD0546706B8007EC
:1011600000D5A6E0FFF7C2FD411B03200229F5D9F7
:1011700089E1706AE169002974D001210843706235
:10118000FFF7B4FD0546706A8007CDD4FFF7AEFDCA
:10119000401B0228F7D9032007B0F0BD01200390BF
:1011A0000107F0690840029006D1F0690843F06138
:1011B000F0690840069006980191B64F3868C0055E
:1011C00028D403980402386820433860FFF78EFD66
:1011D0000546386820421DD1FFF788FD401B642872
:1011E000F7D9032007B0F0BD3068059CE1680029FD
:1011F0004AD0012108433060FFF778FD054630688A
:10120000800786D4FFF772FD401B0228F7D9032020
:1012100007B0F0BD059880689F4F002800D1AFE06F
:10122000052800D1C1E0012800D1C2E0306A03994D
:1012300088433062306A04218843BDE06168012040
:101240004704002900D1D0E0052900D1E4E00129BC
:1012500000D1E5E0010432688A43326081043068DD
:101260008843E0E0012188437062FFF73FFD0546B7
:10127000706A800700D457E7FFF738FD401B02284B
:10128000F6D9032007B0F0BD012188433060FFF795
:101290002DFD05463068800700D441E7FFF726FDA5
:1012A000411B03200229F5D9EDE0706B042188432E
:1012B0007063706BF821884305998969C9000143FF
:1012C00071630598046A002C1DD070680C210140E0
:1012D00008291ED1012C19D00320C20370680240D6
:1012E000F16A059C636A9A4210D10F221140E36AA9
:1012F0009942049B00D0C8E091040840A16A88424A
:10130000184600D0BFE0002007B0F0BD049807B039
:10131000F0BD012002063168049291433160470616
:10132000FFF7E4FC0546022C0BD1049C30683842E0
:1013300000D188E0FFF7DAFC411B03200229F5D930
:10134000A1E030683842DED0FFF7D0FC411B03201B
:101350000229F6D997E0706B042101437163706B29
:10136000012188437063FFF7C1FC0546706B80075D
:10137000A7D5FFF7BBFC411B03200229F6D982E069
:10138000306A039988433062306A042188433062AE
:10139000FFF7ACFC0546306A80071CD5FFF7A6FCBA
:1013A000411B0320B942F6D96DE0306A04210143A4
:1013B0003162306A039908433062FFF797FC0546B3
:1013C000306A800707D4FFF791FC401BB842F7D979
:1013D000032007B0F0BD02980028059C00D0A6E6C7
:1013E000F06901998843F061A1E6010432688A43FB
:1013F00032608004316881433160FFF777FC054635
:10140000059C3068384200D167E6FFF76FFC411B4E
:1014100003206429F5D936E0810432680A4332603A
:101420000104306808433060FFF760FC054630680F
:10143000384200D051E6FFF759FC401B6428F6D92A
:10144000032007B0F0BDF06A0F218843059AD16AE6
:101450000143F1627B20C00371688143906A0843B5
:10146000516A01437160306820433060FFF73EFCF1
:1014700004463068384200D045E7FFF737FC011BCF
:1014800003200229F5D907B0F0BD184607B0F0BD1A
:10149000001002400070004088130000401E010E42
:1014A00001D0012070470749074A50600748036888
:1014B0000B40032189075918016000209060072123
:1014C00011607047FFFFFF0010E000E020ED00E03A
:1014D00070477047B0B5002824D0044605463C3517
:1014E0006878002804D100202870204600F05EF8BB
:1014F0000220687020680368514A904202D04E4929
:10150000884211D170218B43A1681943234B984223
:101510000EDC494B984214D0224B984211D0904295
:101520000FD039E00120B0BD19461C4B9842F0DDC8
:10153000424A904205D01A4A904202D02A4A90422A
:101540002AD103221202914322690A4321463E31E5
:1015500080239A43A36913430360E268C26262680E
:101560008262114A82180A23DA41072A06D8012327
:101570009340E122134201D0626902630122426179
:101580000A720A704A708A70CA700A714A718A7146
:10159000CA716A700020B0BD0A46D7E7FF3F01401C
:1015A000004801400020004000D4FEBF10B582B0CA
:1015B00000680D49884201D002B010BD01204004EE
:1015C0000A490A6802430A600968014001910198CA
:1015D0001524002120460A46FFF7E6FB2046FFF7C8
:1015E000D7FB02B010BDC0460044014018100240B5
:1015F0003D21415C012918D101463D3102220A708A
:101600000068C26801210A43C2600B4A904205D0BB
:101610000A4A904202D00A4A904208D182680723BF
:101620001340062B03D10020704701207047026849
:101630000A4302600020704700040040004001405F
:10164000002C01407047B0B504468020C543206897
:101650000169890717D5C168890714D529467E31E4
:101660000161012121778069800703D02046FFF7BF
:10167000E9FF05E0204600F08AF8204600F088F8EF
:101680000020207720680169490718D5C1684907FB
:1016900015D529467C3101610221217780698005B9
:1016A000800F03D02046FFF7CDFF05E0204600F075
:1016B0006EF8204600F06CF8002020772068016961
:1016C000090717D5C168090714D529467831016182
:1016D00004212177C069800703D02046FFF7B2FFBD
:1016E00005E0204600F053F8204600F051F80020B5
:1016F000207720680169C90618D5C168C90615D5C3
:1017000029467031016108212177C0698005800F69
:1017100003D02046FFF796FF05E0204600F037F89B
:10172000204600F035F80020207720680169C907BD
:1017300009D0C168C90706D029467F31016120461A
:1017400000F028F820680169090607D5C168090674
:1017500004D505612046FFF7BBFE206801694906F4
:1017600009D5C168490606D52946403101612046A0
:1017700000F026F820680169890607D5C168890646
:1017800004D5603505612046FFF7A3FEB0BD704764
:101790007047000010B5084C0120A06020461430AE
:1017A000FFF75AF9606805490A68904200DD086051
:1017B0000020606010BDC046700000200C000020BA
:1017C0007047B0B500282ED00446C06F002805D160
:1017D000782000212154204600F028F82420E067DA
:1017E000206801680125A9430160204600F0EEF958
:1017F000012816D0606A002802D0204600F01AF9AD
:101800000120C102226853688B435360916808230A
:1018100099439160116801431160204600F074F90A
:1018200005462846B0BD0120B0BD000010B586B009
:1018300000210591049103910291019100681E4AD3
:10184000904217D01D4A904233D1012082031C4B95
:101850005C6814435C605C6814400094009A400427
:101860001A6802431A601A68024000920098032026
:10187000400211E001204004114A93680343936041
:10188000936803400093009B13680343136012683E
:101890000240009200980C2001220592032204923B
:1018A00003910221029101900920C00601A9FFF7CE
:1018B0003DF906B010BDC04600440040003801406C
:1018C00014100240F0B585B00546C06F202811D134
:1018D000012000290CD01646002A09D00120070358
:1018E000AA68BA4209D1CA0707D02A69002A04D1D6
:1018F00005B0F0BD022005B0F0BD019103932C4668
:1019000050340020029060632120E867FFF7EEF971
:10191000049066802680A868B84202D12869002811
:1019200001D0019F02E000270198029003990BE08B
:10193000029A1188184B19400185921C0292374671
:1019400003996088401E60806088002810D0009154
:101950008021002628463246049B00F03BFA0028EE
:1019600014D12868002FE3D0397801857F1CE7E780
:101970000091402100222846049B00F02BFA2021F0
:10198000E9670028B4D0032005B0F0BD2020E86747
:10199000032005B0F0BDC046FF010000F0B5C36FE5
:1019A000202B10D1012300292CD0002A2AD08568B1
:1019B00001242603B54208D1CB0706D00369002BCA
:1019C00003D12046F0BD0220F0BD074650377A8093
:1019D00000237B633A80C1642121C167B54202D1F3
:1019E0000169002901D0094900E00749C166EFF308
:1019F000108184F310880068026880241443046016
:101A000081F310881846F0BD1D1D00087D1D0008DB
:101A1000FEE7FEE77047704780B5FFF76BF980BDC2
:101A20007047000080B50248FFF70DFE80BDC0463C
:101A3000C4000020B0B5416ACA070CD18A0714D48B
:101A40004A071CD40A0724D4CA062CD48A0634D4E4
:101A50004A063CD44CE00122520403685C6894437B
:101A6000826A22435A608A07EAD501221204036877
:101A70005C689443C26A22435A604A07E2D5012255
:101A8000920403685C689443026B22435A600A071D
:101A9000DAD50122D20303685C689443426B224387
:101AA0005A60CA06D2D50122120303689C68944387
:101AB000826B22439A608A06CAD5012252030368C8
:101AC0009C689443C26B22439A604A0610D5012257
:101AD0001305026854689C43056C2C4354609D4276
:101AE00006D103235B0554689C43436C2343536036
:101AF000090607D50121C904026853688B43806C2D
:101B000018435060B0BD0000F0B583B004460646EF
:101B100078360027F760FFF7E9F803462068016888
:101B200009071FD528480090012002904105002296
:101B300020461D4600F04EF9002811D0EFF310802A
:101B4000029981F3108821680A6880239A430A6009
:101B500080F310882020E0670320377003B0F0BDC9
:101B600020682B460068400725D5174800900125BE
:101B7000A9050022204600F02DF900281BD0EFF324
:101B8000108085F3108809214901226813688B436E
:101B9000136080F31088EFF3108085F310882168BC
:101BA0008A68AA438A6080F310882020B0600320EE
:101BB000377003B0F0BD2020E067B060276667662D
:101BC0003846377003B0F0BDFFFFFF01B0B50446E3
:101BD00000680168444A0A40A16823690B436569AB
:101BE0001D431543E1690D43056003221203436859
:101BF0009343E2681A434260A269236A13430B22AB
:101C00001202856895431D4385600022374B984238
:101C100006DC394B984211D0384B98420ED00CE07C
:101C2000334B98420AD0334A904206D13448006878
:101C30008007000F33A2125800E010220125EB03A9
:101C40003448994210D1082A49D8C0467A441279BA
:101C50005200974404442044194444441F00FFF7B1
:101C6000E9F9002817D113E0082A38D87A44127904
:101C70005200974404342734203434342600FFF7CC
:101C8000D9F900281ED11AE0FFF7E2F9002802D1A5
:101C9000002524E01846400061684A08101800F04A
:101CA00075FA0246103A1C498A4218D201400007D0
:101CB000400F084310E0FFF7CBF9002802D10025C0
:101CC0000DE0184661684A08101800F05FFA0146F6
:101CD0001039114A914202D22168C86000250020C3
:101CE000A066E0662846B0BDF369FFEFFF4B0040F9
:101CF000004C0040003801400044004000480040D3
:101D00003010024000000000040000000800000045
:101D10000200000000127A00F0FF0000B0B5C16FB1
:101D2000212910D15221415A00290DD001465231AA
:101D3000C26C1388104C1C4003681C85921CC26442
:101D40000888401E0880B0BDEFF31081012282F3A5
:101D5000108803681C688025AC431C6081F31088E0
:101D6000EFF3108182F31088006802684023134368
:101D7000036081F31088B0BDFF010000B0B5C16FF2
:101D800021290ED15221415A00290BD0014652314E
:101D90000268C36C1C7814855A1CC2640888401EF3
:101DA0000880B0BDEFF31081012282F31088036830
:101DB0001C688025AC431C6081F31088EFF3108110
:101DC00082F310880068026840231343036081F3A4
:101DD0001088B0BDF0B587B015460F460668F169AA
:101DE0003940C91B4A424A410021AA4225D10693E3
:101DF0000C9C002C24D00B46611C26D1F169394083
:101E0000C91B4A424A41AA4214D1F1693940C91B4F
:101E10004A424A41AA420DD1F1693940C91B4A429E
:101E20004A41AA4206D1F1693940C91B4A424A4196
:101E3000AA42E3D0184607B0F0BD084607B0F0BD8F
:101E4000FEF754FF032007B0F0BD0293014678313E
:101E5000039101210191C9020491059006E0C9692D
:101E60003940CA1B51425141A9424BD1FEF73EFFB6
:101E70000699411A0323A142DCD8059801680A6833
:101E80005207ECD5CA6912073FD4CA692646049C9A
:101E900022423446E3D01F4604980862EFF31082D2
:101EA000012181F3108809235B01059804682568E6
:101EB0009D43256082F31088EFF3108281F3108830
:101EC000059803689C688C439C60059882F3108891
:101ED000026E012A0BD1EFF3108281F310880168A2
:101EE0000B681024A3430B60059882F3108820210F
:101EF000039B99600022026682661A70D960384698
:101F000007B0F0BD029807B0F0BD08250D62EFF3F1
:101F10001081019880F3108809225201059B1B68EB
:101F20001C6894431C6081F31088EFF3108180F3E8
:101F30001088059A1268936883439360059B81F328
:101F40001088196E01290CD1EFF31081012282F360
:101F500010881A6813681024A3431360059B81F34B
:101F600010882021039A91600021196699661170EA
:101F7000D56007B0F0BD000096B0FEF7C5FE0024A6
:101F80000F940D9410940E9411940C940B941220B1
:101F90000A901594012001051491C10313910225A3
:101FA00012950F900D90102010900E9005940494AF
:101FB000039402940AA8FFF769F8002803D0EFF30E
:101FC000108072B6FEE709940894079507200690E2
:101FD00006A801263146FEF791FF002803D0EFF353
:101FE000108072B6FEE70394019601A8FEF7F8FE92
:101FF000002803D0EFF3108072B6FEE70E94F004D1
:1020000054490A6802430A600A6802400192019832
:1020100070040A6802430A6009680140019101984E
:102020000920C5062027284639462246FEF756FED7
:102030000D940C940B960A970AA92846FEF776FD94
:102040003820454D2C54EE636C63FF20C2303104C0
:102050000422424B6B61AC61EC612C626E62AA623D
:10206000E962286314352846FEF7DEFB002803D01A
:10207000EFF3108072B6FEE70A200A9030070C904A
:1020800030030B900AA92846FEF77EFA002803D0F9
:10209000EFF3108072B6FEE731483249324A334BD3
:1020A000036042608460C160046144618461FFF741
:1020B00011FA002803D0EFF3108072B6FEE72C4827
:1020C0000C262C49046244624B22570282C00460F1
:1020D00044608460C660046144610838FFF771FBA6
:1020E000002803D0EFF3108072B6FEE722482349A0
:1020F00082C0046044608460C6600461446184619D
:10210000C4610838FFF75DFB002803D0EFF31080AF
:1021100072B6FEE700951248FFF76AFA0E4D194EA7
:10212000194F0AE0AC60E343134831463A46FFF7E3
:10213000C9FB30463946FEF705F90098FEF756FC14
:10214000A8680128EED0022209480DA1FFF726FC5D
:10215000F3E7C04614100240700000200024014044
:10216000C4000020E70300007FBB000000440140E2
:102170000C01002000380140940100200044004080
:10218000242000001C0200209213000043088B4210
:102190001AD3002203098B4279D3030A8B425ED300
:1021A000030B8B4242D3030C8B4227D30902FF223D
:1021B00012BA030C8B4202D31212090203D0030B92
:1021C0008B4233D31AE0D3E0411A8041401C704760
:1021D00003460B4371D443088B42F5D30022030915
:1021E0008B4254D3030A8B4239D3030B8B421DD34A
:1021F000030C8B4202D394466EE0090AC30B8B4258
:1022000001D3CB03C01A5241830B8B4201D38B0302
:10221000C01A5241430B8B4201D34B03C01A5241A7
:10222000030B8B4201D30B03C01A5241C30A8B42EA
:1022300001D3CB02C01A5241830A8B4201D38B02D5
:10224000C01A5241430A8B4201D34B02C01A524179
:10225000030A8B4201D30B02C01A5241CDD2C309EB
:102260008B4201D3CB01C01A524183098B4201D367
:102270008B01C01A524143098B4201D34B01C01A52
:10228000524103098B4201D30B01C01A5241C308CA
:102290008B4201D3CB00C01A524183088B4201D339
:1022A0008B00C01A524143088B4201D34B00C01A25
:1022B0005241411A524110007047CA0F00D04942A2
:1022C000031000D34042534000229C4603098B4236
:1022D0002DD3030A8B4212D38901FC2212BA030ABE
:1022E0008B420CD3890192118B4208D38901921140
:1022F0008B4204D3890137D0921100E08909C309C8
:102300008B4201D3CB01C01A524183098B4201D3C6
:102310008B01C01A524143098B4201D34B01C01AB1
:10232000524103098B4201D30B01C01A5241C30829
:102330008B4201D3CB00C01A524183088B4201D398
:102340008B00C01A5241D9D243088B4201D34B00B3
:10235000C01A5241411A00D201465241104663460A
:102360005B1000D34042704763465B1000D340428D
:1023700001B50021004201D0C9430846C046C0460D
:1023800002BD000000000000000001020304060777
:102390000809000000000102030402030405060707
:1023A00008090A0B0C0D0E0F10100102030405069C
:1023B0000708090A0B0C0D0E0F100000E02300089F
:1023C000000000201000000004010008F0230008B5
:1023D00010000020A81B00002001000800000000E1
:1023E000010000000400000000127A00FFFFFFFF60
:04000005080000C12E
:00000001FF
