:020000040800F2
:10000000C006002065010008FD0D0008FB0D00087A
:1000100000000000000000000000000000000000E0
:10002000000000000000000000000000010E0008B9
:100030000000000000000000FF0D0008030E000893
:100040007701000800000000770100087701000830
:1000500077010008770100087701000847020008CF
:100060000000000077010008770100087701000810
:100070007701000877010008770100080000000000
:100080007701000877010008770100087701000870
:10009000770100080D0E00087701000877010008BD
:1000A0007701000877010008770100087701000850
:1000B00077010008770100080000000077010008C0
:1000C00000F002F800F03EF80CA030C80838241800
:1000D0002D18671EA246AB4654465D46AC4201D180
:1000E00000F030F87E460F3EB6460FCC0126334274
:1000F00000D0FB1A3343A246AB4618474410000019
:1001000064100000103A02D378C878C1FAD85207B8
:1001100001D330C830C101D504680C6070470000BD
:100120000023002400250026103A01D378C1FBD813
:10013000520700D330C100D50B6070471FB51FBDFB
:1001400010B510BD00F04DF81146FFF7F7FF00F0B5
:1001500063FE00F065F803B4FFF7F2FF03BC00F0A4
:100160006BF800000748804707480047FEE7FEE7B6
:10017000FEE7FEE7FEE7FEE704480549054A064BB1
:10018000704700000B0E0008C1000008C0000020EE
:10019000C0060020C0020020C002002001E004C010
:1001A000091F0429FBD28B0701D50280801CC907D7
:1001B00000D00270704700290BD0C30702D0027034
:1001C000401C491E022904D3830702D50280801CEB
:1001D000891EE3E70022EEE70022DFE77047704761
:1001E0007047754600F024F8AE4605006946534650
:1001F000C008C000854618B020B5FFF7BDFF60BC41
:10020000B64600260027C0C5C0C5C0C5C0C5C0C50C
:10021000C0C5C0C5C0C5403D490849008D467047AE
:1002200010B50446C046C0462046FFF794FF10BDF7
:10023000004870471000002001491820ABBEFEE7BF
:1002400026000200704780B50120400300F01AF834
:1002500080BD0000B0B50125690388420CD1074C70
:100260002068002804D0064800F0D0FC002502E0F9
:10027000034800F0F5FC2560B0BDC0460C0000202E
:100280007000002080B504490A68024202D008606C
:10029000FFF7E0FF80BDC04614040140F0B58AB00E
:1002A00003900F68002F00D1C3E06348039A824295
:1002B00001D0052000E00320009000231A461C46D0
:1002C00008910BE03A433260079A641C0F68384685
:1002D000E0409B1C121D002800D1AAE001260596D3
:1002E000A6403740F1D00792032002469A4002937D
:1002F000D34349680D4605406A1E012A06930491BE
:1003000013D80197039FB8681840089AD268029BD7
:100310009A400243BA60C806C00FA0407A68B24350
:100320003E46019F0243726006E0032D039E029B3E
:1003300002D10546079A1EE0F06806990840089920
:100340008A689A400243F260022D079A13D11C205A
:1003500010400F218140E2089200B218156A8D43C7
:10036000089E3169814029431162079A7068039E93
:100370000325049005409D403068069908402843B5
:10038000306004988003800F08999ED05F49086808
:10039000059D284308600868284009900C201040FB
:1003A0000F228240032125468D430999244EA959E5
:1003B0009143AD190922D206039E96420CD0214AE0
:1003C000964206D0204A9642009A1C4E06D102223E
:1003D00004E01A4E059A01E00022184E82400A43BA
:1003E0002A60B568089801464068C2020FD53D43AF
:1003F000B560F56882020FD4BD43F560756882036D
:100400000FD4BD4375603268C00310D55AE7BD43B1
:10041000B560F5688202EFD53D43F56075688203EB
:10042000EFD53D4375603268C00300D54AE7BA4353
:1004300049E70AB0F0BDC046000C00480004014086
:1004400008000140000400480008004842690B46CB
:1004500093430A401104C91881617047002A02D0F1
:100460001822815070472822815070470548006843
:100470007047C0461A48007802490A681018086098
:100480007047C046B800002080B58048016810223F
:100490000A430260032000F005F800F023F8002072
:1004A00080BDC04670B504467D20C0000C4E31783A
:1004B00000F032FD01467C48006800F02DFD00F0A0
:1004C000FDFA0125032C08D8002806D10025E843B1
:1004D00021462A4600F028F87460284670BDC046C0
:1004E0000000002082B00948016801221143016028
:1004F0000168114001910199110742680A43426065
:10050000406808400090009802B070471810024000
:10051000002805D41F2108400121814001480160C5
:100520007047C04600E100E0002805D403220346DE
:1005300093430A4A9A1803E00C220240064BD21851
:100540008007C00E8901C9B28140FF238340106833
:10055000984308431060704714ED00E000E400E0A9
:10056000F0B581B0002861D00446484A13680120E4
:1005700003408B4208D213680126B3430B43136038
:10058000126832408A424ED1009121688A07404B5E
:1005900011D54A0707D5072212023D4B1B681343AA
:1005A0003B4A13603A4B1A68F0239A43A3681343FB
:1005B000374A1360364BC9073CD1344908680126D5
:1005C0003040009A904205D90868B0430860086836
:1005D000C00728D12078400706D5072000021968F7
:1005E0008143E0680843186019680C220A402A48D1
:1005F000082A0CD18902090F284A545C996A0F22F3
:100600000A402749895C00F087FC214B6043196848
:100610000906090F234A515CC8402349086003209A
:10062000FFF740FF0026304601B0F0BD01263046FE
:1006300001B0F0BD61681A1F022906D0012909D155
:10064000126892030646EED508E01268920106464B
:10065000E9D503E0126892070646E4D51868032638
:10066000B04308431860FFF701FF0746094D084BE8
:1006700018680C2101406068800081429DD0FFF71E
:10068000F5FEC01BA842F2D9CDE7C04600200240CB
:10069000041002408813000000127A001E110008A6
:1006A0002E1100080E11000808000020F0B587B0D8
:1006B00004460120002C00D1F5E104902078C00709
:1006C000FB4E059419D071680C20014004290DD00F
:1006D00071680140082900D0C0E00320C0037168A0
:1006E000014001200004814200D0B7E0306880035F
:1006F00003D56068002800D118E1207880071FD555
:1007000070680007800F0CD070680C210140082928
:100710007AD10320C003716801400120C0038142E7
:1007200072D130688007059C03D5E068012800D0AD
:10073000FCE03068F82188432169C9000143316039
:10074000059C2078000724D42078400736D42078F0
:10075000C00600D4C5E005984069411D00D1B4E051
:10076000012800D007E1706B042101437163706BB5
:10077000012101437163FFF779FE0546706B800725
:1007800000D5A6E0FFF772FE411B03200229F5D930
:1007900089E1706AE169002974D00121084370621F
:1007A000FFF764FE0546706A8007CDD4FFF75EFE52
:1007B000401B0228F7D9032007B0F0BD01200390A9
:1007C0000107F0690840029006D1F0690843F06122
:1007D000F0690840069006980191B64F3868C00548
:1007E00028D403980402386820433860FFF73EFE9F
:1007F0000546386820421DD1FFF738FE401B6428AB
:10080000F7D9032007B0F0BD3068059CE1680029E6
:100810004AD0012108433060FFF728FE05463068C2
:10082000800786D4FFF722FE401B0228F7D9032059
:1008300007B0F0BD059880689F4F002800D1AFE059
:10084000052800D1C1E0012800D1C2E0306A039937
:1008500088433062306A04218843BDE0616801202A
:100860004704002900D1D0E0052900D1E4E00129A6
:1008700000D1E5E0010432688A43326081043068C7
:100880008843E0E0012188437062FFF7EFFD0546F1
:10089000706A800700D457E7FFF7E8FD401B022885
:1008A000F6D9032007B0F0BD012188433060FFF77F
:1008B000DDFD05463068800700D441E7FFF7D6FD2F
:1008C000411B03200229F5D9EDE0706B0421884318
:1008D0007063706BF821884305998969C9000143E9
:1008E00071630598046A002C1DD070680C210140CA
:1008F00008291ED1012C19D00320C20370680240C0
:10090000F16A059C636A9A4210D10F221140E36A92
:100910009942049B00D0C8E091040840A16A884233
:10092000184600D0BFE0002007B0F0BD049807B023
:10093000F0BD012002063168049291433160470600
:10094000FFF794FD0546022C0BD1049C3068384219
:1009500000D188E0FFF78AFD411B03200229F5D969
:10096000A1E030683842DED0FFF780FD411B032054
:100970000229F6D997E0706B042101437163706B13
:10098000012188437063FFF771FD0546706B800796
:10099000A7D5FFF76BFD411B03200229F6D982E0A2
:1009A000306A039988433062306A04218843306298
:1009B000FFF75CFD0546306A80071CD5FFF756FD42
:1009C000411B0320B942F6D96DE0306A042101438E
:1009D0003162306A039908433062FFF747FD0546EC
:1009E000306A800707D4FFF741FD401BB842F7D9B2
:1009F000032007B0F0BD02980028059C00D0A6E6B1
:100A0000F06901998843F061A1E6010432688A43E4
:100A100032608004316881433160FFF727FD05466D
:100A2000059C3068384200D167E6FFF71FFD411B87
:100A300003206429F5D936E0810432680A43326024
:100A40000104306808433060FFF710FD0546306848
:100A5000384200D051E6FFF709FD401B6428F6D963
:100A6000032007B0F0BDF06A0F218843059AD16AD0
:100A70000143F1627B20C00371688143906A08439F
:100A8000516A01437160306820433060FFF7EEFC2B
:100A900004463068384200D045E7FFF7E7FC011B09
:100AA00003200229F5D907B0F0BD184607B0F0BD04
:100AB000001002400070004088130000401E010E2C
:100AC00001D0012070470749074A50600748036872
:100AD0000B4003218907591801600020906007210D
:100AE00011607047FFFFFF0010E000E020ED00E024
:100AF00070477047B0B5002824D0044605463C3501
:100B00006878002804D100202870204600F05EF8A4
:100B10000220687020680368504A904202D04D4914
:100B2000884211D170218B43A1681943234B98420D
:100B30000EDC484B984214D0224B984211D0904280
:100B40000FD039E00120B0BD19461C4B9842F0DDB2
:100B5000414A904205D01A4A904202D0ED4A904252
:100B60002AD103221202914322690A4321463E31CF
:100B700080239A43A36913430360E268C2626268F8
:100B80008262114A82180A23DA41072A06D8012311
:100B90009340E122134201D0626902630122426163
:100BA0000A720A704A708A70CA700A714A718A7130
:100BB000CA716A700020B0BD0A46D7E7FF3F014006
:100BC000004801400020004000D4FEBF10B582B0B4
:100BD0000068D049884201D002B010BD0120400415
:100BE00009490A6802430A600968014001910198B5
:100BF0001524002120460A46FFF796FC2046FFF701
:100C000087FC02B010BDC046181002403D21415C77
:100C1000012918D101463D3102220A700068C268DC
:100C200001210A43C2600B4A904205D00A4A904211
:100C300002D00A4A904208D1826807231340062B4B
:100C400003D1002070470120704702680A43026008
:100C5000002070470004004000400140002C01408B
:100C600010B50268D36801218B43D360136A094C25
:100C7000234203D03D228154002010BD136A064C4C
:100C80002342F7D113688B4313603D228154002027
:100C900010BDC04611110000440400007047B0B5FB
:100CA00004468020C54320680169890717D5C168BB
:100CB000890714D529467E31016101212177806998
:100CC000800703D02046FFF7E9FF05E0204600F04B
:100CD0008AF8204600F088F8002020772068016913
:100CE000490718D5C168490715D529467C310161E6
:100CF0000221217780698005800F03D02046FFF70D
:100D0000CDFF05E0204600F06EF8204600F06CF8BC
:100D10000020207720680169090717D5C1680907F5
:100D200014D529467831016104212177C0698007F3
:100D300003D02046FFF7B2FF05E0204600F053F84D
:100D4000204600F051F80020207720680169C9068C
:100D500018D5C168C90615D5294670310161082129
:100D60002177C0698005800F03D02046FFF796FFEA
:100D700005E0204600F037F8204600F035F8002066
:100D8000207720680169C90709D0C168C90706D062
:100D900029467F310161204600F027F8206801696B
:100DA000090607D5C168090604D505612046FFF785
:100DB0009FFE20680169490609D5C168490606D524
:100DC000294640310161204600F016F8206801698B
:100DD000890607D5C168890604D5603505612046B6
:100DE000FFF787FEB0BD7047704780B50920C00689
:100DF0002021FFF72BFB80BD7047FEE7FEE7704721
:100E0000704780B5FFF736FB80BD704780B53F481F
:100E1000FFF745FF80BDC04692B0FFF735FB06AD3A
:100E2000281D2C21FFF7D8F900240E9410200A90D9
:100E300001260996022006902846FFF737FC002875
:100E400003D0EFF3108072B6FEE705940494039488
:100E50000720029002A82146FFF782FB002803D05A
:100E6000EFF3108072B6FEE70A940994F004244967
:100E70000A6802430A600A680240029202987004FB
:100E80000A6802430A600968014002910298092039
:100E9000C0060190202529462246FFF7DFFA089474
:100EA0001120000407901748C1300690164806AF7D
:100EB0003946FFF7F3F909940894079606950198C7
:100EC0003946FFF7EBF90725284621462246FFF76A
:100ED0002BFB2846FFF71CFB0C480D490D4A02600E
:100EE000084A42608460C160046144618461FFF724
:100EF00001FE002803D0EFF3108072B6FEE7FEE794
:100F0000141002403F1F000000080048700000203D
:100F1000E70300000044014043088B421AD300223B
:100F200003098B4279D3030A8B425ED3030B8B42B6
:100F300042D3030C8B4227D30902FF2212BA030CBF
:100F40008B4202D31212090203D0030B8B4233D31C
:100F50001AE0D3E0411A8041401C704703460B431E
:100F600071D443088B42F5D3002203098B4254D33A
:100F7000030A8B4239D3030B8B421DD3030C8B42E4
:100F800002D394466EE0090AC30B8B4201D3CB0314
:100F9000C01A5241830B8B4201D38B03C01A5241BA
:100FA000430B8B4201D34B03C01A5241030B8B42BC
:100FB00001D30B03C01A5241C30A8B4201D3CB02A7
:100FC000C01A5241830A8B4201D38B02C01A52418C
:100FD000430A8B4201D34B02C01A5241030A8B428F
:100FE00001D30B02C01A5241CDD2C3098B4201D3A7
:100FF000CB01C01A524183098B4201D38B01C01A25
:10100000524143098B4201D34B01C01A524103099B
:101010008B4201D30B01C01A5241C3088B4201D34A
:10102000CB00C01A524183088B4201D38B00C01AF7
:10103000524143088B4201D34B00C01A5241411A1E
:10104000524110007047CA0F00D04942031000D32C
:101050004042534000229C4603098B422DD3030A91
:101060008B4212D38901FC2212BA030A8B420CD3A1
:10107000890192118B4208D3890192118B4204D3CA
:10108000890137D0921100E08909C3098B4201D34D
:10109000CB01C01A524183098B4201D38B01C01A84
:1010A000524143098B4201D34B01C01A52410309FB
:1010B0008B4201D30B01C01A5241C3088B4201D3AA
:1010C000CB00C01A524183088B4201D38B00C01A57
:1010D0005241D9D243088B4201D34B00C01A52412E
:1010E000411A00D201465241104663465B1000D3BC
:1010F0004042704763465B1000D3404201B5002177
:10110000004201D0C9430846C046C04602BD0000A7
:1011100000000000000001020304060708090203A2
:101120000405060708090A0B0C0D0E0F101001022A
:10113000030405060708090A0B0C0D0E0F1000002A
:1011400060110008000000201000000004010008E9
:101150007011000810000020B006000020010008F7
:10116000010000000400000000127A0001000000ED
:04000005080000C12E
:00000001FF
