:020000040800F2
:10000000D8070020750100084F1800084D18000897
:1000100000000000000000000000000000000000E0
:10002000000000000000000000000000531800085D
:1000300000000000000000005118000855180008DA
:100040008701000800000000870100088701000800
:100050008701000887010008870100088701000860
:100060000000000021050008870100088701000842
:1000700087010008870100088701000800000000D0
:100080008701000887010008870100088701000830
:10009000870100086118000887010008870100082F
:1000A0008701000887010008870100088701000810
:1000B0008701000887010008000000008701000890
:1000C00000F002F800F046F80CA030C808382418F8
:1000D0002D18671EA246AB4654465D46AC4201D180
:1000E00000F038F87E460F3EB6460FCC012633426C
:1000F00000D0FB1A3343A246AB461847EC1F000062
:100100000C200000103A02D378C878C1FAD8520700
:1001100001D330C830C101D504680C6070470000BD
:100120000023002400250026103A01D378C1FBD813
:10013000520700D330C100D50B60704710B5752948
:1001400002D100F07DF810BD002010BD1FB51FBD0D
:1001500010B510BD00F059F91146FFF7F7FF01F097
:10016000CDFD00F071F903B4FFF7F2FF03BC00F01E
:1001700077F900000748804707480047FEE7FEE799
:10018000FEE7FEE7FEE7FEE704480549054A064BA1
:10019000704700005D180008C1000008D801002069
:1001A000D8070020D8030020D80300200FB41CB5C6
:1001B000074B06AA7B4469460090059800F0F9F8C1
:1001C0000020694600F008F91CBC08BC04B01847C0
:1001D00021020000F8B50E460446002020622046A9
:1001E000E1688847002829D0252802D06268A168E4
:1001F00020E0E16820460027884705001ED02846F9
:100200004138192802D80127FF02203532462046FE
:1002100027602946FFF792FF002808D0012804D064
:10022000F61DF608F6000836D9E7361DD7E76268EE
:100230002846A1689047206A401CCFE7206AF8BD95
:10024000F7B5002575291068009914A611D0C0468D
:10025000C046002802DA404211A608E00099096869
:100260008A0701D50FA602E0490704D50EA601258D
:1002700001E0C046C046009F0024243704E000F09F
:10028000B0F830313955641C0028F8D12B4632467D
:100290002146009800F02FF8FEBD0000000000008D
:1002A0002D0000002B0000002000000030B5441C91
:1002B00003E00178401C00290DD08107F9D10B4BD8
:1002C000DD0104C8D11A91432940FAD0001B0A0667
:1002D00003D0C01E30BD001B30BD0A0401D0801EFB
:1002E00030BD0902FCD0401E30BD000001010101FB
:1002F000704770477047FFB504460D4681B0243003
:1003000000902168880604D51022E069914321609D
:1003100000E00120A84201DD471B00E0002704980F
:10032000A1697A191018081AA0612078C00602D4B1
:100330002046C046C046002608E003986268A168CF
:10034000805D9047206A401C761C2062049886429B
:10035000F3DB2078C0060AD52046C046C04606E03A
:100360006268A16830209047206A401C20623846AD
:100370007F1E0028F4DC07E000986268A168405DF9
:100380009047206A401C206228466D1E0028F3DC3E
:100390002046C046C0462078000602D5022005B09F
:1003A000F0BD0120FBE7000001694A1C02610878EA
:1003B000704700B58FB00291002105910549019366
:1003C00079440391114604906846FFF703FF0FB08C
:1003D00000BD0000E5FFFFFF0A681070521C0A60B4
:1003E000704701468008081A02091018020A1018FE
:1003F000020C1018C008820012185200891A01E07D
:10040000401C0A390A29FBD27047754600F024F8CF
:10041000AE46050069465346C008C000854618B080
:1004200020B5FFF7B1FE60BCB64600260027C0C568
:10043000C0C5C0C5C0C5C0C5C0C5C0C5C0C5403D9C
:10044000490849008D46704710B50446C046C0466D
:100450002046FFF788FE10BD0048704718000020B6
:1004600001491820ABBEFEE72600020070470000DD
:1004700070B582B0054600240194006881680322AB
:100480000A40012A05D10168C9070ED1C1680904D3
:100490000BD48168214A11420AD0A86B1021014374
:1004A000A963E86B01242043E863204602B070BDD5
:1004B000816801220A43826067480068674901F049
:1004C000FBFC01900198002817D00198401E019074
:1004D0000198002811D00198401E01900198002831
:1004E0000BD00198401E01900198002805D001987A
:1004F000401E019001980028E7D100F0EBFB064672
:1005000028680068C007D0D100F0E4FB811B286890
:100510000329F6D30168C907F3D1BEE717000080AD
:1005200080B5CC4800F056FA80BDC046EFF310808D
:1005300072B6FEE7F0B583B0002702973422825CE2
:10054000012A02D1022003B0F0BD05463435066809
:10055000B268520717D4009701950B684A680124C6
:1005600027469F403A4DAA4213D1B06AB843B062C1
:100570001846A0431028009F3846019D54D1102BE7
:1005800019D0384818E0816B20220A438263012089
:100590004AE0B26A3A43B262C06A421E072A46D2B1
:1005A0001846A0431028009F3846019D3CD1102BCF
:1005B0000AD0A00509E02A4826490A6802400A60D4
:1005C00038462F7003B0F0BDE00522490A680243A7
:1005D0000A60102B384627D11F4800681F4901F0D8
:1005E0006BFC0A21414302910298002838461BD037
:1005F0000298401E02900298002811D00298401ED6
:100600000290029800280BD00298401E0290029897
:10061000002805D00298401E029002980028E7D1D9
:1006200038462F7003B0F0BD2F7003B0F0BD220725
:100630009042B5D072690720024089689142AFD0DC
:100640007269824372610140706908437061A7E773
:1006500001100000082701400800002040420F0060
:10066000FFFF7FFFFFFFBFFF0068006C70470000C7
:10067000F0B581B00125002862D004460646243634
:10068000806B002803D0A06BC00609D554E0002081
:100690003074E063204600F097F8A06BC0064BD49E
:1006A00020688168490747D481214900A26B8A43A9
:1006B000911CA163826803210A40012A05D10268C6
:1006C000D2070ED1C26812040BD4C26818239A4311
:1006D000A3681343C360890702698A4361681143B1
:1006E0000161C168364A0A40C260A16A491E4A1EB9
:1006F00091410903227E9203637EDB031343A27EB2
:1007000055031D43E36827692B430B43B91E4D4234
:100710004D41AD001D43317849002943E37E012B53
:1007200014D1002A0FD0A26B20231343A363E26BE2
:1007300001231343E36309E0A06B10210143A1638C
:10074000284601B0F0BD012212041143E269FF23E3
:10075000C2339A4202D0236A19431143C2680A4342
:10076000C260E26A531E072B24D243690725AB43BC
:1007700043612A40436913434361C068114A024000
:100780008A420AD10025E563A06B012101430220C2
:100790008143A163284601B0F0BDA06B1021014345
:1007A00002208143A163E06B01252843E0632846D2
:1007B00001B0F0BD01231B079A42D6D0DDE7C04649
:1007C0001902FEFFE7FF3F83F0B587B0044600261D
:1007D0000696059600681C49884201D007B0F0BD16
:1007E0001A484168012702977A020092114341603A
:1007F0004168114001910199F90402680A430260BD
:100800000068084001900496032003900198104866
:1008100002A900F087F90F4DF80280210E4A44C565
:100820002E6069600099A960E8602E616E61083DE4
:10083000284600F039F9002801D0FFF777FE6C62F6
:10084000256307B0F0BDC0460024014014100240EB
:1008500000080048C000002008000240F0B581B048
:100860000D4604464069082801D1082704E02068A5
:10087000C068C00764D10C2700F02CFA0646216836
:10088000086838421CD001204202A36B1343A363C3
:10089000CA681205920F66D1A27E002A63D10A6847
:1008A000120760D58A68520754D4224638324B6802
:1008B0000C25AB434B60FF2502351368AB4350E07A
:1008C000681C39D0002D1BD10868384221D0086837
:1008D0003842D8D1086838421BD008683842D2D193
:1008E0000868384215D008683842CCD108683842C8
:1008F0000FD008683842E7D0C5E708683842C2D14F
:1009000000F0E8F9801B2168A842F6D9086838424F
:10091000F3D1342000212154A06B04210143A163B1
:10092000032001B0F0BD08683842ACD108683842F5
:10093000A9D108683842A6D108683842F3D0A2E7A6
:10094000342000212154A06B20210143A163012008
:1009500001B0F0BDA26B20231343A36322463C32B7
:10096000E36B03431360227E0020002A01D001B014
:10097000F0BD0C220A6001B0F0BD000070B5044665
:1009800000688168022049070FD43421615C012985
:100990000BD02546343501262E70607E012805D007
:1009A0002046FFF765FD002800D070BDA06B084908
:1009B000014030020818A0630020E06321681C2277
:1009C0000A6028708A68042313438B6070BDC04698
:1009D000FEF0FFFFF0B585B0C16B026C04273C460A
:1009E0000292944003910E68214631404B424B41A4
:1009F000049005682868014639404A424A411A4332
:100A000030D0019501230227014639404C424C4128
:100A1000029A974037421D461946334600D0214678
:100A2000049E3446203400292CD008210840474237
:100A300047411046D340190700D53D46002D019B84
:100A40001ED119680E229143196001210A46824085
:100A5000039B5A60B163002222706170316B0029E0
:100A60000CD10DE02968890602D42968B9432960B0
:100A700003994C60049EF16A002901D030468847F2
:100A800005B0F0BD019B1968890605D419680A22D2
:100A900091431960012161700021217003994F6019
:100AA000B16A0029EAD1EBE7F0B585B000282FD074
:100AB00004460646203602207070A2CC2368606887
:100AC0000190A0680290E068039020690490086893
:100AD000114A02402A433A431A43019802430298BA
:100AE000024303980243049802430A600025E5622A
:100AF0000A48206335700A480C3C0818142101F09C
:100B0000DBF98000206401207070284605B0F0BD3C
:100B10000125284605B0F0BD0FC0FFFF00000240D0
:100B2000F8FFFDBFF0B58AB003900F68002F00D129
:100B3000C3E06348039A824201D0052000E003200D
:100B4000009000231A461C4608910BE03A4332609D
:100B5000079A641C0F683846E0409B1C121D002851
:100B600000D1AAE001260596A6403740F1D00792B1
:100B7000032002469A400293D34349680D4605403C
:100B80006A1E012A0693049113D80197039FB8683F
:100B90001840089AD268029B9A400243BA60C8067D
:100BA000C00FA0407A68B2433E46019F0243726084
:100BB00006E0032D039E029B02D10546079A1EE024
:100BC000F0680699084008998A689A400243F260E2
:100BD000022D079A13D11C2010400F218140E208FA
:100BE0009200B218156A8D43089E316981402943ED
:100BF0001162079A7068039E0325049005409D408A
:100C00003068069908402843306004988003800FBC
:100C100008999ED057490868059D284308600868D0
:100C2000284009900C2010400F22824003212546C5
:100C30008D430999244EA9599143AD190922D20631
:100C4000039E96420CD0214A964206D0204A9642F4
:100C5000009A1C4E06D1022204E01A4E059A01E0C9
:100C60000022184E82400A432A60B568089801465F
:100C70004068C2020FD53D43B560F56882020FD4CB
:100C8000BD43F560756882030FD4BD43756032685B
:100C9000C00310D55AE7BD43B560F5688202EFD5B1
:100CA0003D43F56075688203EFD53D43756032685A
:100CB000C00300D54AE7BA4349E70AB0F0BDC046D1
:100CC000000C0048000401400800014000040048F6
:100CD00000080048054800687047C0461A48007878
:100CE00002490A68101808607047C046D401002005
:100CF00080B58048016810220A430260032000F09A
:100D000005F800F023F8002080BDC04670B5044609
:100D10007D20C0000C4E317801F0CEF801467D48B0
:100D2000006801F0C9F800F01FFB0125032C08D86A
:100D3000002806D10025E84321462A4600F028F87D
:100D40007460284670BDC0460000002082B009488B
:100D5000016801221143016001681140019101996C
:100D6000110742680A4342604068084000900098BA
:100D700002B0704718100240002805D41F21084017
:100D800001218140014801607047C04600E100E058
:100D9000002805D40322034693430A4A9A1803E025
:100DA0000C220240064BD2188007C00E8901C9B23E
:100DB0008140FF23834010689843084310607047C8
:100DC00014ED00E000E400E0F0B581B0002861D04F
:100DD0000446484A1368012003408B4208D2136836
:100DE0000126B3430B431360126832408A424ED14E
:100DF000009121688A07544B11D54A0707D507226D
:100E00001202514B1B6813434F4A13604E4B1A6832
:100E1000F0239A43A36813434B4A13604A4BC90714
:100E20003CD13449086801263040009A904205D9E7
:100E30000868B04308600868C00728D120784007D8
:100E400006D50720000219688143E068084318604E
:100E500019680C220A403D48082A0CD18902090F62
:100E60003B4A545C996A0F220A403A49895C01F076
:100E700023F8354B604319680906090F1F4A515C76
:100E8000C840244908600320FFF740FF0026304691
:100E900001B0F0BD0126304601B0F0BD61681A1FF7
:100EA000022906D0012909D1126892030646EED51F
:100EB00008E0126892010646E9D503E0126892073D
:100EC0000646E4D518680326B04308431860FFF7C8
:100ED00001FF0746084D1C4B18680C210140606853
:100EE000800081429DD0FFF7F5FEC01BA842F2D9D9
:100EF000CDE7C0460020024088130000AE20000865
:100F000004480068104909684905490F024A515CC4
:100F1000C840704708000020BE20000810B50A49EC
:100F20000A680C2313400948082B0BD19202120FB8
:100F3000074B9C5C896A0F220A400649895C00F0D5
:100F4000BBFF604310BDC0460410024000127A008F
:100F5000C6200008D6200008F0B587B0044601205E
:100F6000002C00D1F5E104902078C007FB4E0594D9
:100F700019D071680C20014004290DD0716801401E
:100F8000082900D0C0E00320C0037168014001209F
:100F90000004814200D0B7E03068800303D5606868
:100FA000002800D118E1207880071FD5706800075D
:100FB000800F0CD070680C21014008297AD10320E1
:100FC000C003716801400120C003814272D13068C2
:100FD0008007059C03D5E068012800D0FCE030685C
:100FE000F82188432169C90001433160059C2078BC
:100FF000000724D42078400736D42078C00600D4D7
:10100000C5E005984069411D00D1B4E0012800D039
:1010100007E1706B042101437163706B012101438F
:101020007163FFF757FE0546706B800700D5A6E099
:10103000FFF750FE411B03200229F5D989E1706AB0
:10104000E169002974D0012108437062FFF742FE74
:101050000546706A8007CDD4FFF73CFE401B02288E
:10106000F7D9032007B0F0BD012003900107F06914
:101070000840029006D1F0690843F061F069084029
:10108000069006980191B64F3868C00528D4039899
:101090000402386820433860FFF71CFE05463868B4
:1010A00020421DD1FFF716FE401B6428F7D903200C
:1010B00007B0F0BD3068059CE16800294AD00121E5
:1010C00008433060FFF706FE05463068800786D487
:1010D000FFF700FE401B0228F7D9032007B0F0BD40
:1010E000059880689F4F002800D1AFE0052800D107
:1010F000C1E0012800D1C2E0306A03998843306220
:10110000306A04218843BDE061680120470400295A
:1011100000D1D0E0052900D1E4E0012900D1E5E0CB
:10112000010432688A433260810430688843E0E019
:10113000012188437062FFF7CDFD0546706A800784
:1011400000D457E7FFF7C6FD401B0228F6D903205D
:1011500007B0F0BD012188433060FFF7BBFD0546B5
:101160003068800700D441E7FFF7B4FD411B03203E
:101170000229F5D9EDE0706B042188437063706B30
:10118000F821884305998969C9000143716305986D
:10119000046A002C1DD070680C21014008291ED162
:1011A000012C19D00320C20370680240F16A059C2B
:1011B000636A9A4210D10F221140E36A9942049B5C
:1011C00000D0C8E091040840A16A8842184600D0C7
:1011D000BFE0002007B0F0BD049807B0F0BD0120CB
:1011E000020631680492914331604706FFF772FDB1
:1011F0000546022C0BD1049C3068384200D188E0AF
:10120000FFF768FD411B03200229F5D9A1E03068F2
:101210003842DED0FFF75EFD411B03200229F6D9DC
:1012200097E0706B042101437163706B0121884367
:101230007063FFF74FFD0546706B8007A7D5FFF77A
:1012400049FD411B03200229F6D982E0306A039947
:1012500088433062306A042188433062FFF73AFDE8
:101260000546306A80071CD5FFF734FD411B03207B
:10127000B942F6D96DE0306A042101433162306A27
:10128000039908433062FFF725FD0546306A800761
:1012900007D4FFF71FFD401BB842F7D9032007B062
:1012A000F0BD02980028059C00D0A6E6F0690199DF
:1012B0008843F061A1E6010432688A433260800409
:1012C000316881433160FFF705FD0546059C3068B4
:1012D000384200D167E6FFF7FDFC411B032064297B
:1012E000F5D936E0810432680A433260010430687F
:1012F00008433060FFF7EEFC05463068384200D006
:1013000051E6FFF7E7FC401B6428F6D9032007B03D
:10131000F0BDF06A0F218843059AD16A0143F1625A
:101320007B20C00371688143906A0843516A01437E
:101330007160306820433060FFF7CCFC04463068B1
:10134000384200D045E7FFF7C5FC011B0320022906
:10135000F5D907B0F0BD184607B0F0BD0010024047
:101360000070004088130000401E010E01D00120D3
:1013700070470749074A5060074803680B4003213C
:10138000890759180160002090600721116070479B
:10139000FFFFFF0010E000E020ED00E07047704725
:1013A000B0B5002824D0044605463C3568780028AE
:1013B00004D100202870204600F05EF802206870FA
:1013C00020680368514A904202D04E49884211D1A8
:1013D00070218B43A1681943234B98420EDC494B83
:1013E000984214D0224B984211D090420FD039E04D
:1013F0000120B0BD19461C4B9842F0DD424A904294
:1014000005D01A4A904202D02A4A90422AD1032299
:101410001202914322690A4321463E3180239A43B6
:10142000A36913430360E268C26262688262114A80
:1014300082180A23DA41072A06D801239340E122C1
:10144000134201D062690263012242610A720A708A
:101450004A708A70CA700A714A718A71CA716A7058
:101460000020B0BD0A46D7E7FF3F014000480140D9
:101470000020004000D4FEBF10B582B000680D49C6
:10148000884201D002B010BD012040040A490A6818
:1014900002430A6009680140019101981524002166
:1014A00020460A46FFF774FC2046FFF765FC02B0B1
:1014B00010BDC04600440140181002403D21415C6F
:1014C000012918D101463D3102220A700068C26824
:1014D00001210A43C2600B4A904205D00A4A904259
:1014E00002D00A4A904208D1826807231340062B93
:1014F00003D1002070470120704702680A43026050
:10150000002070470004004000400140002C0140D2
:101510007047B0B504468020C5432068016989073B
:1015200017D5C168890714D529467E31016101218B
:1015300021778069800703D02046FFF7E9FF05E0A7
:10154000204600F08AF8204600F088F80020207736
:1015500020680169490718D5C168490715D529468A
:101560007C3101610221217780698005800F03D0E1
:101570002046FFF7CDFF05E0204600F06EF820463C
:1015800000F06CF80020207720680169090717D562
:10159000C168090714D529467831016104212177F2
:1015A000C069800703D02046FFF7B2FF05E0204660
:1015B00000F053F8204600F051F800202077206812
:1015C0000169C90618D5C168C90615D52946703103
:1015D000016108212177C0698005800F03D0204672
:1015E000FFF796FF05E0204600F037F8204600F0B0
:1015F00035F80020207720680169C90709D0C16843
:10160000C90706D029467F310161204600F028F83D
:1016100020680169090607D5C168090604D5056176
:101620002046FFF7BBFE20680169490609D5C1685D
:10163000490606D5294640310161204600F036F8BA
:1016400020680169890607D5C168890604D5603517
:1016500005612046FFF7A3FEB0BD7047704700004C
:10166000B0B584B00D4D68680D490A68904200DD40
:1016700008606A8801AC0BA12046FEF797FD204662
:10168000FEF714FE7D21CB0082B20748214600F010
:1016900071F80020686004B0B0BDC046780000203A
:1016A0000C00002025750A004C0100207047B0B5E1
:1016B00000282ED00446C06F002805D178200021D4
:1016C0002154204600F028F82420E06720680168B3
:1016D0000125A9430160204600F096F9012816D0A3
:1016E000606A002802D0204600F0C2F80120C10242
:1016F000226853688B435360916808239943916033
:10170000116801431160204600F01CF90546284687
:10171000B0BD0120B0BD000080B586B0006813499F
:10172000884201D006B080BD11488168012205922F
:101730005204114381608168114000910099016851
:1017400011430160006810400090032004900020C5
:101750000390022002900C2001900920C0060099FD
:1017600001A9FFF7DFF906B080BDC0460044004084
:1017700014100240F0B585B00546C06F202811D185
:10178000012000290CD01646002A09D001200703A9
:10179000AA68BA4209D1CA0707D02A69002A04D127
:1017A00005B0F0BD022005B0F0BD019103932C46B9
:1017B00050340020029060632120E867FFF78AFA26
:1017C000049066802680A868B84202D12869002863
:1017D00001D0019F02E000270198029003990BE0DD
:1017E000029A1188184B19400185921C02923746C3
:1017F00003996088401E60806088002810D00091A6
:101800008021002628463246049B00F0A5F90028D6
:1018100014D12868002FE3D0397801857F1CE7E7D1
:101820000091402100222846049B00F095F92021D8
:10183000E9670028B4D0032005B0F0BD2020E86798
:10184000032005B0F0BDC046FF010000FEE7FEE743
:101850007047704780B5FFF741FA80BD70470000C0
:1018600080B50248FFF755FE80BDC0460401002048
:10187000B0B5416ACA070CD18A0714D44A071CD4F0
:101880000A0724D4CA062CD48A0634D44A063CD487
:101890004CE00122520403685C689443826A22434C
:1018A0005A608A07EAD50122120403685C689443EF
:1018B000C26A22435A604A07E2D5012292040368B1
:1018C0005C689443026B22435A600A07DAD501220E
:1018D000D20303685C689443426B22435A60CA0691
:1018E000D2D50122120303689C689443826B224381
:1018F0009A608A06CAD50122520303689C68944301
:10190000C26B22439A604A0610D501221305026871
:1019100054689C43056C2C4354609D4206D10323BC
:101920005B0554689C43436C23435360090607D509
:101930000121C904026853688B43806C18435060CE
:10194000B0BD0000F0B583B00446064678360027E7
:10195000F760FFF7BFF903462068016809071FD544
:1019600028480090012002904105002220461D4693
:1019700000F0F2F8002811D0EFF31080029981F303
:10198000108821680A6880239A430A6080F31088CF
:101990002020E0670320377003B0F0BD20682B469D
:1019A0000068400725D5174800900125A9050022A9
:1019B000204600F0D1F800281BD0EFF3108085F30B
:1019C000108809214901226813688B43136080F352
:1019D0001088EFF3108085F3108821688A68AA4385
:1019E0008A6080F310882020B0600320377003B035
:1019F000F0BD2020E067B060276667663846377024
:101A000003B0F0BDFFFFFF01B0B5044600680168F8
:101A1000444A0A40A16823690B4365691D43154385
:101A2000E1690D4305600322120343689343E268B2
:101A30001A434260A269236A13430B22120285688B
:101A400095431D4385600022374B984206DC394B95
:101A5000984211D0384B98420ED00CE0334B98424C
:101A60000AD0334A904206D1344800688007000FFC
:101A700033A2125800E010220125EB0334489942AA
:101A800010D1082A49D8C0467A44127952009744A6
:101A900004442044194444441F00FFF731FA00284D
:101AA00017D113E0082A38D87A44127952009744A3
:101AB00004342734203434342600FFF721FA002878
:101AC0001ED11AE0FFF72AFA002802D1002524E0EF
:101AD0001846400061684A08101800F0EDF9024607
:101AE000103A1C498A4218D201400007400F0843AF
:101AF00010E0FFF713FA002802D100250DE0184688
:101B000061684A08101800F0D7F901461039114AE7
:101B1000914202D22168C86000250020A066E066DC
:101B20002846B0BDF369FFEFFF4B0040004C00407A
:101B3000003801400044004000480040301002409E
:101B40000000000004000000080000000200000087
:101B500000127A00F0FF0000F0B587B015460F467E
:101B60000668F1693940C91B4A424A410021AA422C
:101B700025D106930C9C002C24D00B46611C26D149
:101B8000F1693940C91B4A424A41AA4214D1F1695C
:101B90003940C91B4A424A41AA420DD1F169394034
:101BA000C91B4A424A41AA4206D1F1693940C91BC0
:101BB0004A424A41AA42E3D0184607B0F0BD08465F
:101BC00007B0F0BDFFF786F8032007B0F0BD029321
:101BD00001467831039101210191C90204910590D8
:101BE00006E0C9693940CA1B51425141A9424BD153
:101BF000FFF770F80699411A0323A142DCD8059833
:101C000001680A685207ECD5CA6912073FD4CA694D
:101C10002646049C22423446E3D01F4604980862BC
:101C2000EFF31082012181F3108809235B010598ED
:101C3000046825689D43256082F31088EFF31082C5
:101C400081F31088059803689C688C439C60059814
:101C500082F31088026E012A0BD1EFF3108281F318
:101C6000108801680B681024A3430B60059882F369
:101C700010882021039B99600022026682661A70F8
:101C8000D960384607B0F0BD029807B0F0BD08250E
:101C90000D62EFF31081019880F310880922520140
:101CA000059B1B681C6894431C6081F31088EFF34C
:101CB000108180F31088059A1268936883439360BB
:101CC000059B81F31088196E01290CD1EFF3108167
:101CD000012282F310881A6813681024A34313604A
:101CE000059B81F310882021039A916000211966D9
:101CF00099661170D56007B0F0BD000090B0FEF796
:101D0000F7FF0024099407940A9408940B9406940E
:101D10000594122004900F94012001050E91C10337
:101D20000D9102250C950990079010200A900890BB
:101D300004A8FFF711F9002803D0EFF3108072B662
:101D4000FEE703940294019507200090684601265F
:101D50003146FFF739F8002803D0EFF3108072B650
:101D6000FEE7F1044A4802680A43026002680A403A
:101D700004920499710402680A43026002680A40EE
:101D80000492049901683143016000683040049076
:101D900004980925284621462246FEF7F9FF2846E1
:101DA000FEF7EAFF2C203B4F3C543E63BC62FF2011
:101DB000C23031040422384BBB60FC603C617C6162
:101DC000BE61FA61396278623D4608352846FEF701
:101DD0004FFC002803D0EFF3108072B6FEE70A2014
:101DE0000490300706903003059004A92846FEF7BA
:101DF000A1FB002803D0EFF3108072B6FEE727485E
:101E00002749284A284B036042608460C16004610E
:101E100044618461FFF7C4FA002803D0EFF3108017
:101E200072B6FEE721480C21214A046244624B232A
:101E3000DB011CC0046044608160C46004610C3834
:101E4000FFF735FC002803D0EFF3108072B6FEE7F1
:101E50001248FFF733FB154E0DE02846FEF78EFDC6
:101E6000E1432846FEF7FAFC2846FEF7FDFB7880A2
:101E70007868401C786038780128EED10D480178E8
:101E8000012232233046FFF775FC3C70E5E7C0467F
:101E900014100240780000200024014004010020BA
:101EA000E70300007FBB0000004401404C0100201C
:101EB000004400401000002043088B421AD3002247
:101EC00003098B4279D3030A8B425ED3030B8B4207
:101ED00042D3030C8B4227D30902FF2212BA030C10
:101EE0008B4202D31212090203D0030B8B4233D36D
:101EF0001AE0D3E0411A8041401C704703460B436F
:101F000071D443088B42F5D3002203098B4254D38A
:101F1000030A8B4239D3030B8B421DD3030C8B4234
:101F200002D394466EE0090AC30B8B4201D3CB0364
:101F3000C01A5241830B8B4201D38B03C01A52410A
:101F4000430B8B4201D34B03C01A5241030B8B420C
:101F500001D30B03C01A5241C30A8B4201D3CB02F7
:101F6000C01A5241830A8B4201D38B02C01A5241DC
:101F7000430A8B4201D34B02C01A5241030A8B42DF
:101F800001D30B02C01A5241CDD2C3098B4201D3F7
:101F9000CB01C01A524183098B4201D38B01C01A75
:101FA000524143098B4201D34B01C01A52410309EC
:101FB0008B4201D30B01C01A5241C3088B4201D39B
:101FC000CB00C01A524183088B4201D38B00C01A48
:101FD000524143088B4201D34B00C01A5241411A6F
:101FE000524110007047CA0F00D04942031000D37D
:101FF0004042534000229C4603098B422DD3030AE2
:102000008B4212D38901FC2212BA030A8B420CD3F1
:10201000890192118B4208D3890192118B4204D31A
:10202000890137D0921100E08909C3098B4201D39D
:10203000CB01C01A524183098B4201D38B01C01AD4
:10204000524143098B4201D34B01C01A524103094B
:102050008B4201D30B01C01A5241C3088B4201D3FA
:10206000CB00C01A524183088B4201D38B00C01AA7
:102070005241D9D243088B4201D34B00C01A52417E
:10208000411A00D201465241104663465B1000D30C
:102090004042704763465B1000D3404201B50021C7
:1020A000004201D0C9430846C046C04602BD0000F8
:1020B00000000000000001020304060708090000F8
:1020C00000000102030402030405060708090A0BC5
:1020D0000C0D0E0F10100102030405060708090A73
:1020E0000B0C0D0E0F10000008210008000000204E
:1020F000180000000401000820210008180000203A
:10210000C0070000200100080100000004000000DA
:1021100000127A00FFFFFFFF6400000000000000D3
:04000005080000C12E
:00000001FF
